S01D00004763634170706C69636174696F6E50726F6A6563742E73726563AF
S11300000C942A000C9447000C9447000C9447006D
S11300100C9447000C9447000C9447000C94470040
S11300200C9447000C9447000C9447000C94470030
S11300300C9447000C9447000C9447000C94470020
S11300400C9447000C9447000C9447000C94470010
S11300500C94470011241FBECFE5D8E0DEBFCDBF0E
S113006010E0A0E6B0E0E8E2FFE002C005900D92E7
S1130070A83FB107D9F720E0A8EFB0E001C01D9276
S1130080AA3FB207E1F70E949D030C9492070C94D7
S11300900000672B09F09FC0009711F4D8980895C9
S11300A08130910511F4D99808958230910511F4A5
S11300B0DA9808958330910511F4DB98089584301B
S11300C0910511F4DC9808958530910511F4DD98BB
S11300D008958630910511F4DE98089587309105CE
S11300E011F4DF9808958A30910511F4C0980895A9
S11300F08B30910511F4C19808958C30910511F459
S1130100C29808958D30910511F4C39808958E30E6
S1130110910511F4C49808958F30910511F4C59890
S113012008958031910511F4C6980895813191059F
S113013011F4C79808958431910511F4A89808958D
S11301408531910511F4A99808958631910511F42A
S1130150AA9808958731910511F4AB9808958831D0
S1130160910511F4AC9808958931910511F4AD9875
S113017008958A31910511F4AE9808958B31910553
S113018011F4AF9808958E31910511F49098089563
S11301908F31910511F4919808958032910511F4ED
S11301A0929808958132910511F4939808958232BA
S11301B0910511F4949808958332910511F495985A
S11301C008958432910511F496980895859709F05D
S11301D09FC097980895009711F4D89A0895813094
S11301E0910511F4D99A08958230910511F4DA9A9F
S11301F008958330910511F4DB9A089584309105B4
S113020011F4DC9A08958530910511F4DD9A08956E
S11302108630910511F4DE9A08958730910511F422
S1130220DF9A08958A30910511F4C09A08958B30AD
S1130230910511F4C19A08958C30910511F4C29A74
S113024008958D30910511F4C39A08958E30910567
S113025011F4C49A08958F30910511F4C59A089544
S11302608031910511F4C69A08958131910511F4F4
S1130270C79A08958431910511F4A89A0895853197
S1130280910511F4A99A08958631910511F4AA9A59
S113029008958731910511F4AB9A08958831910539
S11302A011F4AC9A08958931910511F4AD9A089529
S11302B08A31910511F4AE9A08958B31910511F4A8
S11302C0AF9A08958E31910511F4909A08958F3163
S11302D0910511F4919A08958032910511F4929A3E
S11302E008958132910511F4939A0895823291050B
S11302F011F4949A08958332910511F4959A08950E
S11303008432910511F4969A0895859709F4979A81
S11303100895CF93C82F80FF07C061E070E082E2A8
S113032090E00E94490006C060E070E082E290E044
S11303300E944900C1FF07C061E070E083E290E0E1
S11303400E94490006C060E070E083E290E00E94F1
S11303504900C2FF07C061E070E084E290E00E94BF
S1130360490006C060E070E084E290E00E94490029
S1130370C3FF07C061E070E085E290E00E9449009D
S113038006C060E070E085E290E00E944900CF91F1
S11303900895CF93C82F60E070E08AE190E00E9456
S11303A049008C2F0E94890161E070E08BE190E0AC
S11303B00E9449008FEC97E00197F1F700C000001C
S11303C060E070E08BE190E00E9449008FEC97E0E0
S11303D00197F1F700C00000CF91089580E00E94DA
S11303E0C90181E00E94C9010895CF93C62F8130CD
S11303F059F480E8860F82958F700E94C9018C2F72
S11304008F700E94C9010CC0823051F480EC860FB9
S113041082958F700E94C9018C2F8F700E94C90130
S1130420CF91089580E00E9489018FE39CE90197B0
S1130430F1F700C0000083E00E94C9018FE097E259
S11304400197F1F700C0000083E00E94C9018FEE1C
S113045095E50197F1F700C0000083E00E94C9010F
S113046082E00E94C90182E00E94C90188E00E94E2
S1130470C90180E00E94C9018CE00E94C90180E0AA
S11304800E94C90186E00E94C9010895CF93C82F34
S113049061E070E08AE190E00E9449008C2F82952F
S11304A08F700E94890161E070E08BE190E00E940E
S11304B049008FEC97E00197F1F700C0000060E07D
S11304C070E08BE190E00E9449008FEC97E0019787
S11304D0F1F700C000008C2F8F700E94890161E049
S11304E070E08BE190E00E9449008FEC97E0019767
S11304F0F1F700C0000060E070E08BE190E00E9442
S113050049008FEC97E00197F1F700C00000CF910C
S11305100895CF93DF93EC018881882331F02196ED
S11305200E94460289918111FBCFDF91CF910895FA
S113053010BC8DE489B98AB188618AB980B58668AE
S113054080BD08951092F9001092F8008091A300E4
S11305508823C9F08CB92FEF80E792E021508040C6
S11305609040E1F700C000008091F8009091F900FC
S113057001969093F9008093F800FC01ED55FF4F2C
S113058080818111E7CF8DE08CB92FEF84E39CE06B
S1130590215080409040E1F700C000001092F90023
S11305A01092F800809199008823C9F08CB92FEF3C
S11305B080E792E0215080409040E1F700C00000C5
S11305C08091F8009091F90001969093F90080933E
S11305D0F800FC01E756FF4F80818111E7CF8DE0E1
S11305E08CB92FEF84E39CE0215080409040E1F7E8
S11305F000C000001092F9001092F8008091900061
S11306008823C9F08CB92FEF80E792E02150804015
S11306109040E1F700C000008091F8009091F9004B
S113062001969093F9008093F800FC01E057FF4F86
S113063080818111E7CF82E28CB92FEF80E792E0CD
S1130640215080409040E1F700C000001092F90072
S11306501092F800809160008823C9F08CB92FEFC4
S113066080E792E0215080409040E1F700C0000014
S11306708091F8009091F90001969093F90080938D
S1130680F800FC01E05AFF4F80818111E7CF82E23C
S11306908CB92FEF80E792E0215080409040E1F741
S11306A000C000008DE08CB92FEF84E39CE0215062
S11306B080409040E1F700C000001092F9001092D1
S11306C0F80080916F008823C9F08CB92FEF80E780
S11306D092E0215080409040E1F700C000008091FA
S11306E0F8009091F90001969093F9008093F80036
S11306F0FC01E159FF4F80818111E7CF8AE18CB978
S11307002FEF80E792E0215080409040E1F700C055
S1130710000060E082E00E94F50186EA90E00E9419
S113072089022FEF84E39CE0215080409040E1F760
S113073000C000000E94EE010895CF93DF93CDB76F
S1130740DEB763970FB6F894DEBF0FBECDBF8FEF51
S113075081BB84BB80E884BF84BF0E9412020E94D4
S1130760EE0160E081E00E94F50180EB90E00E94E0
S1130770890260E082E00E94F50181EC90E00E9431
S113078089022FEF84E39CE0215080409040E1F700
S113079000C000002FEF84E39CE021508040904093
S11307A0E1F700C000000E94EE0160E081E00E94D9
S11307B0F5018FEC90E00E94890260E082E00E94E3
S11307C0F5018AED90E00E9489022FEF84E39CE01A
S11307D0215080409040E1F700C0000080E687B9D6
S11307E082E886B90E9498020F2EFFE0CF2EF7E22E
S11307F0DF2EF02DA12CB12C1B8A1A8A198A188A93
S11308000F2EFCEEEF2EF0E0FF2EF02D0F2EF5E074
S11308103F2EF02D4E012BE0820E911C212C3E0127
S113082086E0680E711CCE0101962C010E94EE0137
S113083060E081E00E94F50185EE90E00E9489026B
S113084067E081E00E94F501369A3699FECF84B1C3
S113085090E00024880F991F001C880F991F001C2A
S1130860892F902D05B110E0000F111F000F111FEB
S1130870082B192B1F930F93FF92EF921F923F9215
S11308809F928F920E94B304C4010E9489020FB602
S1130890F894DEBF0FBECDBFA016B10608F4580110
S11308A00C151D0528F49BE0C916D1040CF0680151
S11308B088899989892BB1F4C501449780179107D8
S11308C088F0C6014E968017910760F48A899B8947
S11308D001969B8B8A8B059729F40E94A20291E0D2
S11308E0988B298A60E082E00E94F5018FEE90E007
S11308F00E94890263E082E00E94F501BF92AF92F8
S1130900FF92EF921F923F927F926F920E94B304E4
S1130910C3010E94890268E082E00E94F50183EF2E
S113092090E00E9489026BE082E00E94F501DF9270
S1130930CF92FF92EF921F923F925F924F920E944A
S1130940B304C2010E9489022FEF84E39CE021508A
S113095080409040E1F700C000000FB6F894DEBF7D
S11309600FBECDBF63CFAEE0B0E0E9EBF4E00C9492
S113097069070D891E898F89988D26E02C831A8337
S1130980098397FF02C080E090E801979E838D83DE
S1130990AE01455E5F4F698D7A8DCE0101960E944E
S11309A0E3044D815E8157FD0AC02F8138854217CB
S11309B053070CF49A01F801E20FF31F10822E96EC
S11309C0E4E00C948507ACE0B0E0E9EEF4E00C94CC
S11309D05B077C016B018A01FC011782168283810B
S11309E081FFBDC1CE0101964C01F7019381F6014F
S11309F093FD859193FF81916F01882309F4ABC125
S1130A00853239F493FD859193FF81916F0185328D
S1130A1029F4B70190E00E94CB06E7CF512C312C8A
S1130A2020E02032A0F48B3269F030F4803259F0A7
S1130A30833269F420612CC08D3239F0803339F46B
S1130A40216026C02260246023C0286021C027FDC5
S1130A5027C030ED380F3A3078F426FF06C0FAE0AC
S1130A605F9E300D1124532E13C08AE0389E300D42
S1130A701124332E20620CC08E3221F426FD6BC16A
S1130A80206406C08C3611F4206802C0883641F414
S1130A90F60193FD859193FF81916F018111C1CF7F
S1130AA0982F9F7D9554933028F40C5F1F4FFFE3DC
S1130AB0F9830DC0833631F0833771F0833509F043
S1130AC05BC022C0F801808189830E5F1F4F4424DC
S1130AD04394512C540115C03801F2E06F0E711C7F
S1130AE0F801A080B18026FF03C0652D70E002C02C
S1130AF06FEF7FEFC5012C870E94C0062C01830194
S1130B002C852F77222E17C03801F2E06F0E711C4E
S1130B10F801A080B18026FF03C0652D70E002C0FB
S1130B206FEF7FEFC5012C870E94B5062C012C8541
S1130B302068222E830123FC1BC0832D90E04816DD
S1130B405906B0F4B70180E290E00E94CB063A94D3
S1130B50F4CFF50127FC859127FE81915F01B70150
S1130B6090E00E94CB0631103A94F1E04F1A5108FC
S1130B704114510471F7E5C0843611F0893639F512
S1130B80F80127FF07C060817181828193810C5F26
S1130B901F4F08C060817181882777FD8095982F49
S1130BA00E5F1F4F2F76B22E97FF09C09095809548
S1130BB0709561957F4F8F4F9F4F2068B22E2AE02A
S1130BC030E0A4010E94FD06A82EA81844C0853771
S1130BD029F42F7EB22E2AE030E025C0F22FF97FCF
S1130BE0BF2E8F36C1F018F4883579F0B4C0803741
S1130BF019F0883721F0AFC02F2F2061B22EB4FE38
S1130C000DC08B2D8460B82E09C024FF0AC09F2F0D
S1130C109660B92E06C028E030E005C020E130E03F
S1130C2002C020E132E0F801B7FE07C060817181A3
S1130C30828193810C5F1F4F06C06081718180E0C7
S1130C4090E00E5F1F4FA4010E94FD06A82EA81875
S1130C50FB2DFF77BF2EB6FE0BC02B2D2E7FA514C8
S1130C6050F4B4FE0AC0B2FC08C02B2D2E7E05C081
S1130C707A2C2B2D03C07A2C01C0752C24FF0DC0B7
S1130C80FE01EA0DF11D8081803311F4297E09C033
S1130C9022FF06C07394739404C0822F867809F0EF
S1130CA0739423FD13C020FF06C05A2C731418F448
S1130CB0530C5718732C731468F4B70180E290E056
S1130CC02C870E94CB0673942C85F5CF731410F4F3
S1130CD0371801C0312C24FF12C0B70180E390E023
S1130CE02C870E94CB062C8522FF17C021FF03C04E
S1130CF088E590E002C088E790E0B7010CC0822F3D
S1130D00867859F021FD02C080E201C08BE227FD04
S1130D108DE2B70190E00E94CB06A51438F4B70128
S1130D2080E390E00E94CB065A94F7CFAA94F40192
S1130D30EA0DF11D8081B70190E00E94CB06A1105D
S1130D40F5CF332009F451CEB70180E290E00E9440
S1130D50CB063A94F6CFF7018681978102C08FEFD4
S1130D609FEF2C96E2E10C947707FC01059061500B
S1130D7070400110D8F7809590958E0F9F1F0895AD
S1130D80FC016150704001900110D8F78095909556
S1130D908E0F9F1F08950F931F93CF93DF93182FE8
S1130DA0092FEB018B8181FD03C08FEF9FEF20C0E2
S1130DB082FF10C04E815F812C813D814217530711
S1130DC07CF4E881F9819F012F5F3F4F39832883A9
S1130DD0108306C0E885F985812F0995892B29F7A9
S1130DE02E813F812F5F3F4F3F832E83812F902F92
S1130DF0DF91CF911F910F910895FA01AA2728300E
S1130E0051F1203181F1E8946F936E7F6E5F7F4FD3
S1130E108F4F9F4FAF4FB1E03ED0B4E03CD0670F4F
S1130E20781F891F9A1FA11D680F791F8A1F911DA2
S1130E30A11D6A0F711D811D911DA11D20D009F4F2
S1130E4068943F912AE0269F11243019305D319334
S1130E50DEF6CF010895462F4770405D4193B3E01D
S1130E600FD0C9F7F6CF462F4F70405D4A3318F0C4
S1130E70495D31FD4052419302D0A9F7EACFB4E075
S1130E80A6959795879577956795BA95C9F700972D
S1130E906105710508959B01AC010A2E06945795CE
S1130EA0479537952795BA95C9F7620F731F841F25
S1130EB0951FA01D08952F923F924F925F926F92BB
S1130EC07F928F929F92AF92BF92CF92DF92EF92D6
S1130ED0FF920F931F93CF93DF93CDB7DEB7CA1B57
S1130EE0DB0B0FB6F894DEBF0FBECDBF09942A8882
S1130EF0398848885F846E847D848C849B84AA842A
S1130F00B984C884DF80EE80FD800C811B81AA81B6
S1130F10B981CE0FD11D0FB6F894DEBF0FBECDBF81
S10B0F20ED010895F894FFCFE0
S1130F282B38383031383432323931353638004993
S1130F386D70757269747920646574656374656429
S1130F4821204368616E67652077617465722E009D
S1130F5841542B434D47533D0041542B434D474681
S1130F683D31004154004D53472053454E54210010
S1130F784D6963726F20436F6E74726F6C6C657227
S1130F8800436F75727365204E6F3A333136004CE7
S1130F9861626F6E692F3131350046617268696E1E
S1130FA82F3130350056616C75653A002564004D63
S10B0FB8583A004D6E3A0000A6
S9030000FC
